{
    "contractName": "AddressExample",
    "abi": [
        {
            "inputs": [],
            "name": "getBalanceofAccount",
            "outputs": [
                {
                    "internalType": "uint256",
                    "name": "",
                    "type": "uint256"
                }
            ],
            "stateMutability": "view",
            "type": "function"
        },
        {
            "inputs": [],
            "name": "myAddress",
            "outputs": [
                {
                    "internalType": "address",
                    "name": "",
                    "type": "address"
                }
            ],
            "stateMutability": "view",
            "type": "function"
        },
        {
            "inputs": [
                {
                    "internalType": "address",
                    "name": "_address",
                    "type": "address"
                }
            ],
            "name": "setAddress",
            "outputs": [],
            "stateMutability": "nonpayable",
            "type": "function"
        }
    ],
    "bytecode": "608060405234801561001057600080fd5b5061011d806100206000396000f3fe6080604052348015600f57600080fd5b5060043610603c5760003560e01c80630ace6d0414604157806326b85ee1146061578063e30081a014608a575b600080fd5b6000546001600160a01b0316316040519081526020015b60405180910390f35b6000546073906001600160a01b031681565b6040516001600160a01b0390911681526020016058565b60b7609536600460b9565b600080546001600160a01b0319166001600160a01b0392909216919091179055565b005b60006020828403121560ca57600080fd5b81356001600160a01b038116811460e057600080fd5b939250505056fea2646970667358221220437d46fd17a26fe055219bac4de0295a3d8b54fd1f3528d7078baf165946f4cd64736f6c634300080a0033",
    "sourcePath": "/Users/paultouchton/workspaces/ethereum-class/AddressExample.sol",
    "compiler": {
        "name": "solc",
        "version": "0.8.10+commit.fc410830"
    },
    "functionHashes": {
        "getBalanceofAccount()": "0ace6d04",
        "myAddress()": "26b85ee1",
        "setAddress(address)": "e30081a0"
    },
    "gasEstimates": {
        "creation": {
            "codeDepositCost": "57000",
            "executionCost": "105",
            "totalCost": "57105"
        },
        "external": {
            "getBalanceofAccount()": "4865",
            "myAddress()": "2337",
            "setAddress(address)": "24546"
        }
    }
}